{"_id":"5b57351d743dcf1836e360ea","txid":"1ad8ee74da8ed52d18cde087babf1b591e0c8832b1156de22e67bd6c966dd556",
"blockhash":"65b9cbb458554a62ea26c5c048aa1c62496831a7d3ec77a394ea139ac59386bd",
"__v":0,"blockindex":257051,"timestamp":1532441712,"total":5148408001383,
"vout":[{"addresses":"TGWAfXYzRpGsuVSWp5JoUVemei8fDmrKbc","amount":100000900000},
{"addresses":"TKsq5n3tzpKweG5GwaQVRk8oNPiab7jTYW","amount":5048407101383}],
"vin":[{"addresses":"TKsq5n3tzpKweG5GwaQVRk8oNPiab7jTYW","amount":5148408011383}]}

{"_id":"5b573d8ebc07456c3cd454aa","txid":"b222465776704a8294c997fda8685b30029c291554fc0ff76ed2edbb7571bc70",
"blockhash":"2241ff01cf7e8526e841b802a016a1dc3c6403f17c35c6253d19f86a8c319acc",
"__v":0,"blockindex":257081,"timestamp":1532443888,"total":6006551043,
"vout":[{"addresses":"TV4JVRfzEYWdmS9dWfnKABgHc8zghP8dnc","amount":1000000000},
{"addresses":"TUdw3buwGohJTjMjfJW8xmq2EfMDS3zUcF","amount":5006551043}],
"vin":[{"addresses":"TRSX5eSnYFTgTNgSVZDk38nizcq7SwrKDs","amount":6006561043}]},

{"_id":"5b573cd9eed95f133ca664b2","txid":"3cf8190bedf79f82a4497ab98ff8dcc4be8af8028172baab3a8548a80ed05376",
"blockhash":"771bae8a3eae12245325453a6dd3aa7b9f85cede09b2bbb6fe3d93dc159ca905",
"__v":0,"blockindex":257079,"timestamp":1532443696,"total":80999980000,
"vout":[{"addresses":"TGxjdtn76KaFYSGnNT99s567axVv4BMxVf","amount":80999900000},
{"addresses":"TKsz3AGqjR9ET9VSLqtg1D4SNFDes8sGoh","amount":80000}],
"vin":[{"addresses":"TBFAWTCbQLekfjKHWnbaFtsgmk3qNWSU3u","amount":80999990000}]},

{
  "hex": "01000000003f575b0187193990b5441ae8ce4d37be994473d9c92b1c410c84732eeabb8454945394620100000049483045022100c8a06a260d8f46836f34cd504094270829d8b4fa5feb7199d20decdc14eaf53602201fbbd896238ccc8aebab93d84ad50e465be537c4519926c764a5bd28a4b03c9301ffffffff020000000000000000007fffd5141f00000023210239eb166eda75a1fda8b0761fc81c1950e903e46b8f261fed04c215e38e72c7d3ac00000000",
  "txid": "7fbadad918975f133c5fbee993f844e15055897b63742db863b657a1912531ab",
  "version": 1,
  "time": 1532444416,
  "locktime": 0,
  "vin": [
    {
      "txid": "629453945484bbea2e73840c411c2bc9d9734499be374dcee81a44b590391987",
      "vout": 1,
      "scriptSig": {
        "asm": "3045022100c8a06a260d8f46836f34cd504094270829d8b4fa5feb7199d20decdc14eaf53602201fbbd896238ccc8aebab93d84ad50e465be537c4519926c764a5bd28a4b03c9301",
        "hex": "483045022100c8a06a260d8f46836f34cd504094270829d8b4fa5feb7199d20decdc14eaf53602201fbbd896238ccc8aebab93d84ad50e465be537c4519926c764a5bd28a4b03c9301"
      },
      "sequence": 4294967295
    }
  ],
  "vout": [
    {
      "value": 0,
      "n": 0,
      "scriptPubKey": {
        "asm": "",
        "hex": "",
        "type": "nonstandard"
      }
    },
    {
      "value": 1334.93555071,
      "n": 1,
      "scriptPubKey": {
        "asm": "0239eb166eda75a1fda8b0761fc81c1950e903e46b8f261fed04c215e38e72c7d3 OP_CHECKSIG",
        "hex": "210239eb166eda75a1fda8b0761fc81c1950e903e46b8f261fed04c215e38e72c7d3ac",
        "reqSigs": 1,
        "type": "pubkey",
        "addresses": [
          "TLF9qhFcfSvf2a8U3fs4LN35yTG7JM7d73"
        ]
      }
    }
  ],
  "blockhash": "17b01994d047ea77a09e1d9d66e2ad77c375a2d936faa981f3a192695e6ac681",
  "confirmations": 4,
  "blocktime": 1532444416
}